:100000000C9463000C948B000C948B000C948B006C
:100010000C948B000C948B000C948B000C948B0034
:100020000C948B000C948B000C948B000C94450565
:100030000C948B000C948B000C948B000C948B0014
:100040000C94FB040C948B000C948B000C948B0090
:100050000C948B000C948B000C948B000C948B00F4
:100060000C948B000C948B000000000024002700EF
:100070002A0000000000250028002B0000000000DE
:1000800023002600290004040404040404040202DA
:100090000202020203030303030301020408102007
:1000A0004080010204081020010204081020000012
:1000B0000008000201000003040700000000000027
:1000C00000008909090611241FBECFEFD8E0DEBF6A
:1000D000CDBF11E0A0E0B1E0ECECF9E102C0059089
:1000E0000D92AC3DB107D9F722E0ACEDB1E001C013
:1000F0001D92A43BB207E1F710E0C2E6D0E004C0D5
:100100002197FE010E94D80AC136D107C9F70E9483
:100110002A060C94D90C0C9400008F929F92AF92F7
:10012000BF92FF920F931F93CF93DF93F0909502AE
:100130002BE02F1508F44CC02091970208E512E03F
:10014000021B110927FD1395000F111F000F111F2E
:1001500020919602C8E8D0E0C21BD10927FDD395B3
:10016000CC0FDD1FCC0FDD1F4E010D2E000CAA0899
:10017000BB089801012E000C440B550B28193909B6
:100180004A095B09DC010E945C0A24EB30E040E094
:1001900050E00E94320A820E931EA41EB51E8C16D9
:1001A0009D062CF0E801801691060CF4E4012297DC
:1001B000CC0FDD1F2FB7F8948F2D90E0FC01EE0FD0
:1001C000FF1FE80FF91FEF58FD4FD283C1832FBFE8
:1001D000DF91CF911F910F91FF90BF90AF909F90B3
:1001E0008F90089596E0899FD0011124AE5FBD4F96
:1001F00090967C936E935F9791E091969C939197E4
:10020000E0916F02F091700290916E02992339F0A3
:10021000309751F0811108C080911E0209943097E7
:1002200019F05C968C91FACF0895CF92DF92EF92FD
:10023000FF920F931F9396E0899FF0011124EE5FC8
:10024000FD4F11A2278D30A12130310551F178F0F9
:100250002230310509F451C02330310509F452C070
:100260001F910F91FF90EF90DF90CF90089566233C
:10027000B9F361E070E00E94F2002FB7F89480912A
:10028000FE019091FF01A0910002B09101022FBFE9
:1002900080935A0290935B02A0935C02B0935D023C
:1002A000DFCF9FB7F894C090FE01D090FF01E0909F
:1002B0000002F09001029FBF00915A0210915B0270
:1002C00020915C0230915D02C01AD10AE20AF30A61
:1002D00000916C0210916D0230E020E00C151D05BC
:1002E0002E053F0550F462E070E01F910F91FF90E2
:1002F000EF90DF90CF900C94F2006111B1CF63E0EA
:1003000070E0F3CF70E060E0F0CFAF92BF92CF9299
:10031000DF92EF92FF920F931F93CF93DF936C01C5
:100320007B018B01040F151FEB015E01AE18BF08A6
:10033000C017D10759F06991D601ED91FC91019058
:10034000F081E02DC6010995892B79F7C501DF9170
:10035000CF911F910F91FF90EF90DF90CF90BF90C2
:10036000AF900895833081F028F4813099F0823085
:10037000A9F008958730A9F08830C9F08430B1F42D
:10038000809180008F7D03C0809180008F77809363
:100390008000089584B58F7784BD089584B58F7DDE
:1003A000FBCF8091B0008F778093B000089580914B
:1003B000B0008F7DF9CFCF93DF93282F30E0F90184
:1003C000E255FF4F8491F901E656FF4FD491F901B0
:1003D000EA57FF4FC491CC23A1F081110E94B201D2
:1003E000EC2FF0E0EE0FFF1FE458FF4FA591B49102
:1003F000EC91ED2381E090E009F480E0DF91CF9172
:10040000089580E090E0FACF862F0C94DB011F93D3
:10041000CF93DF93282F30E0F901E255FF4F84910D
:10042000F901E656FF4FD491F901EA57FF4FC49105
:10043000CC23A9F0162F81110E94B201EC2FF0E01D
:10044000EE0FFF1FEE58FF4FA591B4918FB7F894B0
:10045000EC91111108C0D095DE23DC938FBFDF91A2
:10046000CF911F910895DE2BF8CF862F642F0C9427
:100470000702CF93DF9390E0FC01E656FF4F2491F3
:100480008A579F4FFC0184918823C9F090E0880F20
:10049000991FFC01E859FF4FA591B491FC01EE585A
:1004A000FF4FC591D49161110DC09FB7F8948C9105
:1004B000209582238C938881282328839FBFDF91F6
:1004C000CF910895623051F49FB7F8943C91822FF8
:1004D000809583238C93E8812E2BEFCF8FB7F894F0
:1004E000EC912E2B2C938FBFEACF862F642F0C9488
:1004F00039023FB7F8948091DF019091E001A0911B
:10050000E101B091E20126B5A89B05C02F3F19F08B
:100510000196A11DB11D3FBFBA2FA92F982F882783
:10052000BC01CD01620F711D811D911D42E0660F5E
:10053000771F881F991F4A95D1F708958F929F9230
:10054000AF92BF92CF92DF92EF92FF924B015C018C
:100550000E9479026B017C010E9479026C197D096D
:100560008E099F09683E734081059105A8F321E03B
:10057000821A9108A108B10888EEC80E83E0D81E3F
:10058000E11CF11C81149104A104B10429F7FF902E
:10059000EF90DF90CF90BF90AF909F908F90089595
:1005A000089590E080E0089560E088E00E940702EE
:1005B00060E08DE00C9407028F929F92AF92BF9201
:1005C0000F931F93CF93DF93CDB7DEB7A1970FB6ED
:1005D000F894DEBF0FBECDBF19A2423008F44AE046
:1005E0008E010F5D1F4F842E912CB12CA12CA501E3
:1005F00094010E949B0AE62FB901CA01EA3044F532
:10060000E05DD801EE938D01232B242B252B79F768
:1006100090E080E0109769F0FD0101900020E9F77B
:100620003197AF014A1B5B0BBD0188E992E00E9444
:100630008501A1960FB6F894DEBF0FBECDBFDF9146
:10064000CF911F910F91BF90AF909F908F90089581
:10065000E95CD7CFFC0101900020E9F73197AF01A9
:10066000481B590BBC0188E992E00C948501CF939B
:10067000DF93EC0160E08E810E94070261E08E81D1
:100680000E94070260E08E810E9407028BE891E0E1
:100690000197F1F7DF91CF910895CF92DF92EF921A
:1006A000FF920F931F93CF93DF936C017C0187E040
:1006B000E80EF11CD0E0C0E0062F10E0B8010C2ECF
:1006C00002C0759567950A94E2F76170F701819110
:1006D0007F010E9407022196C430D10579F7C60137
:1006E000DF91CF911F910F91FF90EF90DF90CF900E
:1006F0000C943703CF92DF92EF92FF920F931F93E8
:10070000CF93DF93EC01F62E642F8C810E940702B9
:100710008D818F3F19F060E00E9407020F2D10E0DD
:100720008F8584FF25C06E0187E0C80ED11CF12C97
:10073000E12CB8010E2C02C0759567950A94E2F77A
:100740006170F60181916F010E940702FFEFEF1ABD
:10075000FF0A88E0E816F10461F7CE01DF91CF913E
:100760001F910F91FF90EF90DF90CF900C94370383
:10077000B80184E0759567958A95E1F7CE010E94EE
:100780004D036F2DCE01DF91CF911F910F91FF90FF
:10079000EF90DF90CF900C944D0340E0682F88E9F4
:1007A00092E00C947A0381E00E94CD038BE39FE1F9
:1007B0000197F1F70895CF93DF93823029F4909158
:1007C000A70298609093A7028093AB021092AC02AC
:1007D00080E48093AD0280E18093AE0280E5809357
:1007E000AF0261E080919C020E94390280919D02DB
:1007F0008F3F19F061E00E94390261E080919E0212
:100800000E943902C8E9D2E09E0128593240809105
:10081000A70284FD0BC084E090E0219628173907D9
:1008200044F461E08E810E943902EECF88E090E0CE
:10083000F4CF8BE39DE00197F1F760E080919C029B
:100840000E94070260E080919E020E940702809150
:100850009D028F3F19F060E00E9407028091A7027D
:1008600084FD34C063E088E992E00E944D03CBE44C
:10087000D6E4CE010197F1F763E088E992E00E94A7
:100880004D032197F1F763E088E992E00E944D0360
:1008900083E592E00197F1F762E088E992E00E9437
:1008A0004D038091A70280620E94CD0384E0809373
:1008B000A8028CE00E94CD030E94D30382E08093C3
:1008C000A90286E0DF91CF910C94CD0380620E9453
:1008D000CD038BE496E40197F1F78091A702806243
:1008E0000E94CD0383E592E00197F1F78091A70282
:1008F00080620E94CD03D5CF9091AB02891710F092
:100900008FEF890FE82FF0E0E856FD4F848980686B
:100910000C94CD0341E00E947A0381E090E00895B9
:100920000F931F93CF93DF93EC01888199810097F8
:1009300059F02A813B812617370730F081E0DF919B
:10094000CF911F910F9108958B016F5F7F4F0E9490
:10095000030C009759F0998388831B830A832C81A9
:100960003D81232B59F7FC011082E8CF80E0E7CFCF
:10097000EF92FF920F931F93CF93DF93EC017B01D4
:100980008A01BA010E94900428813981811114C022
:100990002115310519F0C9010E947A0B19821882BC
:1009A0001D821C821B821A82CE01DF91CF911F9182
:1009B0000F91FF90EF9008951D830C83B701C9013B
:1009C0000E94D20CF1CF0E94D30380E00E947C04ED
:1009D0008FE291E00E942A0381E00E947C048FE371
:1009E00091E00E942A0350E040E06FE471E087EF5D
:1009F00091E00C94B8041F920F920FB60F9211243D
:100A00002F933F938F939F93AF93BF938091FE015A
:100A10009091FF01A0910002B09101023091DE019E
:100A200023E0230F2D3758F50196A11DB11D20930A
:100A3000DE018093FE019093FF01A0930002B0932A
:100A400001028091DF019091E001A091E101B0915C
:100A5000E2010196A11DB11D8093DF019093E00199
:100A6000A093E101B093E201BF91AF919F918F916B
:100A70003F912F910F900FBE0F901F90189526E871
:100A8000230F0296A11DB11DD2CF1F920F920FB658
:100A90000F9211242F933F934F935F936F937F9304
:100AA0008F939F93AF93BF93CF93DF93EF93FF9376
:100AB0008091DD01C091DC01D0E087FF24C010925D
:100AC0008500109284008091DD018F5F8093DD01AD
:100AD0008091DD01082E000C990B8C179D0724F4E2
:100AE0008091DD018C30C4F180918400909185006B
:100AF000049680349C4908F47AC0809184009091D7
:100B00008500049676C08091DD01082E000C990BBB
:100B10008C179D07C4F6E091DD018E2FEE0F990B27
:100B2000FC01EE0FFF1FE80FF91FEF58FD4F80810A
:100B300086FFC9CFE091DD018E2FEE0F990BFC01EE
:100B4000EE0FFF1FE80FF91FEF58FD4F808160E0A7
:100B50008F730E940702B7CF2091840030918500E7
:100B6000E091DD018E2FEE0F990BFC01EE0FFF1FC0
:100B7000E80FF91FEF58FD4F81819281820F931F7B
:100B80009093890080938800E091DD018E2FEE0F15
:100B9000990BFC01EE0FFF1FE80FF91FEF58FD4FF7
:100BA000808186FF11C0E091DD018E2FEE0F990B41
:100BB000FC01EE0FFF1FE80FF91FEF58FD4F80817A
:100BC00061E08F730E940702FF91EF91DF91CF9157
:100BD000BF91AF919F918F917F916F915F914F9155
:100BE0003F912F910F900FBE0F901F90189580E4AA
:100BF0009CE990938900809388008FEF8093DD01BA
:100C0000E3CFFC0180819181009711F00C947A0B65
:100C1000089587EF91E00E94010681EF91E00E9424
:100C2000010683EE91E00E94010689EE91E00C94AA
:100C30000106FC0111821082138212821582148235
:100C4000FB0101900020E9F73197AF01461B570BDC
:100C50000C94B804CF93DF9300D0CDB7DEB778946F
:100C600084B5826084BD84B5816084BD85B58260B1
:100C700085BD85B5816085BD80916E008160809362
:100C80006E001092810080918100826080938100CB
:100C900080918100816080938100809180008160DB
:100CA000809380008091B10084608093B100809136
:100CB000B00081608093B00080917A00846080935E
:100CC0007A0080917A00826080937A0080917A0025
:100CD000816080937A0080917A00806880937A00A6
:100CE0001092C10061E088E00E94390261E08DE06D
:100CF0000E94390260E088E00E94070260E08DE017
:100D00000E940702809195028C3008F051C061E08A
:100D100089E00E94390280919502282F30E0F90184
:100D2000EE0FFF1FE20FF31FEF58FD4F9081907CF5
:100D30009960908310929602109297022CE0622F95
:100D40000E94CC0A829FB001112430E020E0AB0168
:100D5000420F531FFA01EE0FFF1FE40FF51FEF586C
:100D6000FD4F908196FD16C02F5F3F4F2C3031050F
:100D700071F781110FC01092800082E08093810092
:100D80001092850010928400B19A80916F00826069
:100D900080936F00E09195028E2F90E0FC01EE0FA2
:100DA000FF1FE80FF91FEF58FD4F8081806480839B
:100DB00090E080E00E948D0082E00E94DB030E94B0
:100DC000D30380E00E947C044091ED015091EE013C
:100DD0006091E9017091EA0188E992E00E94850141
:100DE00081E00E947C044091E7015091E80160910C
:100DF000E3017091E40188E992E00E94850168EBCB
:100E00007BE080E090E00E949E020E94E304412C7F
:100E1000512C32014394222423948090FD01882098
:100E200009F443C03AE0C32ED12CE12CF12C0E94EE
:100E3000D30380E00E947C0480E591E00E942A03B5
:100E400081E00E947C048FE591E00E942A034AE041
:100E5000C701B6010E94DC0286E691E00E942A03E7
:100E600061E088E00E94070264EF71E080E090E0BA
:100E70000E949E0260E088E00E94070264EF71E039
:100E800080E090E00E949E0251E0C51AD108E1087E
:100E9000F10869F61092FD011092F0011092EF0135
:100EA0000E94D4020E94E30439C120926E028FB7DF
:100EB000F8944091FE015091FF0160910002709101
:100EC00001028FBF80915E0290915F02A09160024B
:100ED000B0916102481B590B6A0B7B0B80916A022F
:100EE00090916B02B0E0A0E084179507A607B707C2
:100EF00008F01CC110E080916802181760F4E091BE
:100F00006402F0916502E10FF11D62E080810E94B0
:100F100039021F5FF0CF912C80916902981608F07A
:100F200061C0E92CF12CE0916602F0916702EE0DB0
:100F3000FF1D61E080810E943902E0916602F0911C
:100F40006702EE0DFF1D60E080810E940702D30161
:100F5000C201092C04C0880F991FAA1FBB1F0A9445
:100F6000D2F75C016C01C094D094312C809168025E
:100F7000381608F5032D10E0E0916402F091650247
:100F8000E00FF11F80810E94DB010C5F1F4F000FFB
:100F9000111FF801EE5FFD4F892B41F48081918193
:100FA0008A299B29918380833394E0CF808191812A
:100FB0008C219D21F7CFE0916602F0916702EE0D42
:100FC000FF1D61E080810E9407028091660290917E
:100FD0006702E80EF91E60E0F70180810E94390285
:100FE00093949ACF92E0E92E92E0F92E8701F801CE
:100FF000878D90A1892B31F4148E8FEF9FEF968F00
:10100000858F11A20A5F1F4F92E00E33190779F7FF
:10101000D12C80916802D81608F053C0C12CAD2C99
:10102000B12CAA0CBB1CF501E65FFD4F5F012091BE
:101030006902C21608F043C0F501608171810C2C71
:1010400002C0769567950A94E2F7D29E900111242A
:101050002C0D311DE2E0F2E080E0458D568D241725
:10106000350709F419C18F5F36968A30B1F760FFF2
:1010700024C0E2E0F2E090E080E0448D411118C02D
:10108000E0916202F0916302E20FF31F408156E0AB
:10109000589FF001599FF00D1124EE5FFD4F448FD2
:1010A000368F258F10A2178E61E00E94150105C0B2
:1010B000019636968A30910501F7C394B8CFD39440
:1010C000A8CFF70181A18111882EF6E0EF0EF11C67
:1010D0000E151F05B1F72FB7F8948091FE0190917E
:1010E000FF01A0910002B09101022FBF80935E0228
:1010F00090935F02A0936002B09361028820B1F0E8
:1011000080912302882391F0809121029091220204
:10111000019761F480911E0281110BC080E090E084
:10112000892B09F47ACE0E94000075CE10926E02CF
:10113000F5CF833209F060C02091FB013091FC01B2
:101140008091F5019091F60128173907C1F480913B
:10115000F7019091F8016091F1017091F20100970F
:1011600009F49CC06115710539F4232B09F4A4C05E
:10117000FC01808190E09DC00E94C90C9AC08091C2
:10118000EF019091F00101969093F0018093EF01AF
:1011900003E010E0081B190B0E94D30380E00E94BB
:1011A0007C048FE891E00E942A0381E00E947C0485
:1011B0008DEA91E0101611066CF480EA91E00E942D
:1011C0002A03B801110F880B990B4AE00E94DC0238
:1011D0008CE491E00E942A0360ED77E080E090E0EB
:1011E0000E949E028091EF019091F00103970CF410
:1011F00059CE2092FD0192CF8A3249F450E040E06E
:101200006FE471E087EF91E00E94B8044BCE00914B
:10121000FB011091FC010031110508F07FCF89839B
:101220001A820F5F1F4FB80187EF91E00E94900470
:10123000882399F02091F7013091F8018091FB010A
:101240009091FC01BE016F5F7F4F820F931F0E9440
:10125000D20C1093FC010093FB0181E00E947C04FE
:10126000F12CE12C0091FB011091FC01E016F1063C
:1012700044F48EEB91E00E942A03FFEFEF1AFF0A7D
:10128000F1CF003111050CF049CF8EE491E00E94BE
:101290002A030F5F1F4FF5CF617007CF61157105EE
:1012A00059F0232B49F0FB01808190E091958195C5
:1012B0009109892B09F063CF1092F0011092EF0190
:1012C0000E94D40261E08DE00E9407020E94D303D5
:1012D00080E00E947C048FE691E00E942A0381E076
:1012E0000E947C0480E891E00E942A038AE590E055
:1012F0000E948D0068E873E180E090E00E949E0209
:1013000060E08DE00E94070290E080E00E948D0086
:10131000C9CD10929B0210929A0287E291E09093BD
:101320009902809398028CE080939C028FEF8093C7
:101330009D028BE080939E0285E080939F0284E073
:101340008093A00283E08093A10282E08093A202B6
:101350001092A3021092A4021092A5021092A6026B
:101360001092A70281E00E94DB0310920402109207
:10137000080210920702109209028DE191E0909309
:10138000030280930202EEE1F2E0108214821382E3
:101390001582369682E0EA35F807B9F783E091E0E6
:1013A000909365028093640280E091E090936702DD
:1013B0008093660284E08093680283E080936902F0
:1013C00087E091E090936302809362028AE090E06C
:1013D00090936B0280936A0284EF91E090936D0288
:1013E00080936C021092700210926F0210925E0253
:1013F00010925F02109260021092610210926E02CF
:101400008091DC018C3050F591E0980F9093DC01D5
:101410008093950290E0FC01EE0FFF1FE80FF91F8B
:10142000EF58FD4F88EB9BE09283818360EC71E085
:1014300089EE91E00E9419066CEC71E083EE91E078
:101440000E94190666ED71E081EF91E00E94190695
:101450006FE471E087EF91E00C9419068FEF8093B1
:101460009502E4CF052E97FB1EF400940E94490AD2
:1014700057FD07D00E949B0A07FC03D04EF40C9442
:10148000490A50954095309521953F4F4F4F5F4FFA
:10149000089590958095709561957F4F8F4F9F4FE0
:1014A00008950E94BD0AA59F900DB49F900DA49F22
:1014B000800D911D11240895B7FF0C94510A0E94CC
:1014C000510A821B930B08952F923F924F925F9285
:1014D0006F927F928F929F92AF92BF92CF92DF9244
:1014E000EF92FF920F931F93CF93DF93CDB7DEB7A9
:1014F000CA1BDB0B0FB6F894DEBF0FBECDBF09943D
:101500002A88398848885F846E847D848C849B8493
:10151000AA84B984C884DF80EE80FD800C811B81A1
:10152000AA81B981CE0FD11D0FB6F894DEBF0FBED0
:10153000CDBFED010895A1E21A2EAA1BBB1BFD0130
:101540000DC0AA1FBB1FEE1FFF1FA217B307E407A2
:10155000F50720F0A21BB30BE40BF50B661F771FFA
:10156000881F991F1A9469F76095709580959095DA
:101570009B01AC01BD01CF010895A29FB001B39FB3
:10158000C001A39F700D811D1124911DB29F700D8C
:10159000811D1124911D0895991B79E004C0991FA4
:1015A000961708F0961B881F7A95C9F780950895BD
:1015B000EE0FFF1F0590F491E02D09940F931F93F8
:1015C000CF93DF938230910510F482E090E0E091B8
:1015D000B202F091B30230E020E0B0E0A0E030973A
:1015E00099F42115310509F44AC0281B390B243020
:1015F0003105D8F58A819B816115710589F1FB015F
:1016000093838283FE0111C0408151810281138145
:1016100048175907E0F04817590799F4109761F0F7
:1016200012960C93129713961C933296CF01DF916A
:10163000CF911F910F9108950093B2021093B302BE
:10164000F4CF2115310551F04217530738F0A901A5
:10165000DB019A01BD01DF01F801C1CFEF01F9CF34
:101660009093B3028093B202CDCFFE01E20FF31F3D
:10167000819391932250310939832883D7CF2091C8
:10168000B0023091B102232B41F420911501309129
:1016900016013093B1022093B002209113013091D2
:1016A00014012115310541F42DB73EB740911701C2
:1016B00050911801241B350BE091B002F091B1025A
:1016C000E217F307A0F42E1B3F0B2817390778F019
:1016D000AC014E5F5F4F2417350748F04E0F5F1F78
:1016E0005093B1024093B002819391939FCFF0E069
:1016F000E0E09CCFCF93DF930097E9F0FC013297B5
:1017000013821282A091B202B091B302ED0130E0D7
:1017100020E01097A1F420813181820F931F209146
:10172000B0023091B1022817390709F061C0F09377
:10173000B102E093B002DF91CF910895EA01CE1794
:10174000DF07E8F54A815B819E0141155105B1F73C
:10175000E901FB83EA8349915991C40FD51FEC1726
:10176000FD0761F4808191810296840F951FE90144
:1017700099838883828193819B838A83F0E0E0E070
:1017800012968D919C9113970097B9F52D913C91EC
:101790001197CD010296820F931F2091B0023091D4
:1017A000B1022817390739F6309751F51092B30274
:1017B0001092B202B093B102A093B002BCCFD38317
:1017C000C28340815181840F951FC817D90761F4E6
:1017D0004E5F5F4F88819981480F591F5183408325
:1017E0008A819B81938382832115310509F0B0CFD3
:1017F000F093B302E093B2029ECFFD01DC01C0CFB3
:1018000013821282D7CFB0E0A0E0E9E0FCE00C94B4
:10181000660A8C01009751F4CB010E94DE0A8C010C
:10182000C801CDB7DEB7E0E10C94820AFC01E60FF7
:10183000F71F9C0122503109E217F30708F49DC0FD
:10184000D901CD91DC911197C617D70798F0C53013
:10185000D10530F3CE0104978617970708F3C61B0E
:10186000D70B2297C193D1936D937C93CF010E94A4
:101870007A0BD6CF5B01AC1ABD0A4C018C0E9D1EB3
:10188000A091B202B091B302512C412CF12CE12C69
:10189000109731F58091B0029091B10288159905A9
:1018A00009F05CC04616570608F058C08091130135
:1018B00090911401009741F48DB79EB740911701A4
:1018C00050911801841B950BE817F90708F055C0D3
:1018D000F093B102E093B002F90171836083A0CF6D
:1018E0008D919C91119712966C90129713967C9003
:1018F0001397A815B90559F56C0142E0C40ED11C27
:10190000CA14DB0420F1AC014A195B09DA01129612
:10191000159780F06282738251834083D9016D9361
:101920007C93E114F10471F0D7011396FC93EE93CC
:10193000129776CF22968C0F9D1FF9019183808399
:10194000F301EFCFF093B302E093B20269CF4816F0
:10195000590608F42C017D01D3019ACFCB010E94D6
:10196000DE0A7C01009749F0AE01B8010E94C00C6C
:10197000C8010E947A0B870153CF10E000E050CFDE
:10198000FB01DC0102C001900D9241505040D8F79C
:101990000895FB01DC018D91019080190110D9F3AC
:1019A000990B0895FB01DC0101900D920020E1F7F5
:1019B000089510E0C2E6D0E004C0FE010E94D80AFB
:0C19C0002196C336D107C9F7F894FFCF79
:1019CC0006070A0E0F1011313233343536373839D9
:1019DC002A30230000B4028000000000007502359C
:1019EC00020402000000008A048501D102D00245E5
:1019FC006E7465722050617373776F72643A002055
:101A0C0020202020202020202020202020202000EA
:101A1C0021212120414C41524D20202121210057D0
:101A2C006169743A20002073656320202020002017
:101A3C00414343455353204752414E5445442000A3
:101A4C002020446F6F72204F70656E6564210020FA
:101A5C004143434553532044454E494544212000BE
:101A6C005472696573206C6566743A20005359533F
:101A7C0054454D204C4F434B4544212020002A0017
:101A8C0041686D6564204F73726F6600313230327D
:0C1A9C0031323433390031323334000071
:00000001FF
